{
  "contractName": "NewSnaccMachine",
  "abi": [
    {
      "inputs": [],
      "stateMutability": "nonpayable",
      "type": "constructor"
    },
    {
      "inputs": [
        {
          "internalType": "address",
          "name": "caller",
          "type": "address"
        },
        {
          "internalType": "address",
          "name": "owner",
          "type": "address"
        }
      ],
      "name": "CallerNotOwner",
      "type": "error"
    },
    {
      "inputs": [
        {
          "internalType": "uint256",
          "name": "sent",
          "type": "uint256"
        },
        {
          "internalType": "uint256",
          "name": "expected",
          "type": "uint256"
        }
      ],
      "name": "NotEnoughValueSent",
      "type": "error"
    },
    {
      "inputs": [
        {
          "internalType": "string",
          "name": "snackName",
          "type": "string"
        }
      ],
      "name": "SnackAlreadyExists",
      "type": "error"
    },
    {
      "inputs": [
        {
          "internalType": "string",
          "name": "snackName",
          "type": "string"
        }
      ],
      "name": "SnackDoesNotExist",
      "type": "error"
    },
    {
      "inputs": [
        {
          "internalType": "string",
          "name": "snackName",
          "type": "string"
        }
      ],
      "name": "SnackSoldOut",
      "type": "error"
    },
    {
      "inputs": [],
      "name": "owner",
      "outputs": [
        {
          "internalType": "address",
          "name": "",
          "type": "address"
        }
      ],
      "stateMutability": "view",
      "type": "function"
    },
    {
      "inputs": [],
      "name": "getSnacks",
      "outputs": [
        {
          "components": [
            {
              "internalType": "uint256",
              "name": "amount",
              "type": "uint256"
            },
            {
              "internalType": "uint256",
              "name": "price",
              "type": "uint256"
            }
          ],
          "internalType": "struct ISnaccMachine.Snack[]",
          "name": "",
          "type": "tuple[]"
        }
      ],
      "stateMutability": "view",
      "type": "function"
    },
    {
      "inputs": [
        {
          "internalType": "string",
          "name": "snackName",
          "type": "string"
        }
      ],
      "name": "buySnack",
      "outputs": [],
      "stateMutability": "payable",
      "type": "function"
    },
    {
      "inputs": [
        {
          "internalType": "string",
          "name": "snackName",
          "type": "string"
        },
        {
          "internalType": "uint256",
          "name": "amount",
          "type": "uint256"
        }
      ],
      "name": "refillSnack",
      "outputs": [],
      "stateMutability": "nonpayable",
      "type": "function"
    },
    {
      "inputs": [
        {
          "internalType": "string",
          "name": "snackName",
          "type": "string"
        },
        {
          "internalType": "uint256",
          "name": "amount",
          "type": "uint256"
        },
        {
          "internalType": "uint256",
          "name": "price",
          "type": "uint256"
        }
      ],
      "name": "addSnack",
      "outputs": [],
      "stateMutability": "nonpayable",
      "type": "function"
    }
  ],
  "bytecode": "0x60806040523480156200001157600080fd5b50336000806101000a81548173ffffffffffffffffffffffffffffffffffffffff021916908373ffffffffffffffffffffffffffffffffffffffff160217905550620000a26040518060400160405280600881526020017f536e69636b6572730000000000000000000000000000000000000000000000008152506005660e35fa931a00006200019860201b60201c565b620000f26040518060400160405280600481526020017f4d61727300000000000000000000000000000000000000000000000000000000815250600a660e35fa931a00006200019860201b60201c565b620001426040518060400160405280600681526020017f426f756e74790000000000000000000000000000000000000000000000000000815250600f660e35fa931a00006200019860201b60201c565b620001926040518060400160405280600481526020017f54776978000000000000000000000000000000000000000000000000000000008152506014660e35fa931a00006200019860201b60201c565b6200083e565b60008054906101000a900473ffffffffffffffffffffffffffffffffffffffff1673ffffffffffffffffffffffffffffffffffffffff163373ffffffffffffffffffffffffffffffffffffffff16146200024d573360008054906101000a900473ffffffffffffffffffffffffffffffffffffffff166040517f163678e900000000000000000000000000000000000000000000000000000000815260040162000244929190620003a2565b60405180910390fd5b826200025f816200032d60201b60201c565b15620002a457806040517f2fd50ad80000000000000000000000000000000000000000000000000000000081526004016200029b919062000469565b60405180910390fd5b604051806040016040528084815260200183815250600185604051620002cb9190620004cf565b9081526020016040518091039020600082015181600001556020820151816001015590505060028490806001815401808255809150506001900390600052602060002001600090919091909150908162000326919062000757565b5050505050565b600080600183604051620003429190620004cf565b90815260200160405180910390206001015414159050919050565b600073ffffffffffffffffffffffffffffffffffffffff82169050919050565b60006200038a826200035d565b9050919050565b6200039c816200037d565b82525050565b6000604082019050620003b9600083018562000391565b620003c8602083018462000391565b9392505050565b600081519050919050565b600082825260208201905092915050565b60005b838110156200040b578082015181840152602081019050620003ee565b60008484015250505050565b6000601f19601f8301169050919050565b60006200043582620003cf565b620004418185620003da565b935062000453818560208601620003eb565b6200045e8162000417565b840191505092915050565b6000602082019050818103600083015262000485818462000428565b905092915050565b600081905092915050565b6000620004a582620003cf565b620004b181856200048d565b9350620004c3818560208601620003eb565b80840191505092915050565b6000620004dd828462000498565b915081905092915050565b7f4e487b7100000000000000000000000000000000000000000000000000000000600052604160045260246000fd5b7f4e487b7100000000000000000000000000000000000000000000000000000000600052602260045260246000fd5b600060028204905060018216806200055f57607f821691505b60208210810362000575576200057462000517565b5b50919050565b60008190508160005260206000209050919050565b60006020601f8301049050919050565b600082821b905092915050565b600060088302620005df7fffffffffffffffffffffffffffffffffffffffffffffffffffffffffffffffff82620005a0565b620005eb8683620005a0565b95508019841693508086168417925050509392505050565b6000819050919050565b6000819050919050565b600062000638620006326200062c8462000603565b6200060d565b62000603565b9050919050565b6000819050919050565b620006548362000617565b6200066c62000663826200063f565b848454620005ad565b825550505050565b600090565b6200068362000674565b6200069081848462000649565b505050565b5b81811015620006b857620006ac60008262000679565b60018101905062000696565b5050565b601f8211156200070757620006d1816200057b565b620006dc8462000590565b81016020851015620006ec578190505b62000704620006fb8562000590565b83018262000695565b50505b505050565b600082821c905092915050565b60006200072c600019846008026200070c565b1980831691505092915050565b600062000747838362000719565b9150826002028217905092915050565b6200076282620003cf565b67ffffffffffffffff8111156200077e576200077d620004e8565b5b6200078a825462000546565b62000797828285620006bc565b600060209050601f831160018114620007cf5760008415620007ba578287015190505b620007c6858262000739565b86555062000836565b601f198416620007df866200057b565b60005b828110156200080957848901518255600182019150602085019450602081019050620007e2565b8683101562000829578489015162000825601f89168262000719565b8355505b6001600288020188555050505b505050505050565b611114806200084e6000396000f3fe60806040526004361061004a5760003560e01c806316a8a1441461004f5780638da5cb5b1461007a578063cd961f89146100a5578063e02402e1146100ce578063f7b20e56146100ea575b600080fd5b34801561005b57600080fd5b50610064610113565b60405161007191906107eb565b60405180910390f35b34801561008657600080fd5b5061008f610215565b60405161009c919061084e565b60405180910390f35b3480156100b157600080fd5b506100cc60048036038101906100c791906109ef565b610239565b005b6100e860048036038101906100e39190610a5e565b6103bc565b005b3480156100f657600080fd5b50610111600480360381019061010c9190610aa7565b61056b565b005b6060600060028054905067ffffffffffffffff81111561013657610135610898565b5b60405190808252806020026020018201604052801561016f57816020015b61015c6106da565b8152602001906001900390816101545790505b50905060005b60028054905081101561020d5760016002828154811061019857610197610b03565b5b906000526020600020016040516101af9190610c35565b9081526020016040518091039020604051806040016040529081600082015481526020016001820154815250508282815181106101ef576101ee610b03565b5b6020026020010181905250808061020590610c7b565b915050610175565b508091505090565b60008054906101000a900473ffffffffffffffffffffffffffffffffffffffff1681565b60008054906101000a900473ffffffffffffffffffffffffffffffffffffffff1673ffffffffffffffffffffffffffffffffffffffff163373ffffffffffffffffffffffffffffffffffffffff16146102eb573360008054906101000a900473ffffffffffffffffffffffffffffffffffffffff166040517f163678e90000000000000000000000000000000000000000000000000000000081526004016102e2929190610cc3565b60405180910390fd5b826102f5816106ac565b1561033757806040517f2fd50ad800000000000000000000000000000000000000000000000000000000815260040161032e9190610d6b565b60405180910390fd5b60405180604001604052808481526020018381525060018560405161035c9190610dbe565b908152602001604051809103902060008201518160000155602082015181600101559050506002849080600181540180825580915050600190039060005260206000200160009091909190915090816103b59190610f6c565b5050505050565b80600015156103ca826106ac565b15150361040e57806040517fb10f10570000000000000000000000000000000000000000000000000000000081526004016104059190610d6b565b60405180910390fd5b60006001836040516104209190610dbe565b9081526020016040518091039020600001540361047457816040517f2eb9b78f00000000000000000000000000000000000000000000000000000000815260040161046b9190610d6b565b60405180910390fd5b6001826040516104849190610dbe565b9081526020016040518091039020600101543410156104fd57346001836040516104ae9190610dbe565b9081526020016040518091039020600101546040517ff4a75d130000000000000000000000000000000000000000000000000000000081526004016104f492919061104d565b60405180910390fd5b6001808360405161050e9190610dbe565b9081526020016040518091039020600001600082825461052e9190611076565b9250508190555060006001836040516105479190610dbe565b908152602001604051809103902060010154346105649190611076565b9050505050565b60008054906101000a900473ffffffffffffffffffffffffffffffffffffffff1673ffffffffffffffffffffffffffffffffffffffff163373ffffffffffffffffffffffffffffffffffffffff161461061d573360008054906101000a900473ffffffffffffffffffffffffffffffffffffffff166040517f163678e9000000000000000000000000000000000000000000000000000000008152600401610614929190610cc3565b60405180910390fd5b816000151561062b826106ac565b15150361066f57806040517fb10f10570000000000000000000000000000000000000000000000000000000081526004016106669190610d6b565b60405180910390fd5b816001846040516106809190610dbe565b908152602001604051809103902060000160008282546106a091906110aa565b92505081905550505050565b6000806001836040516106bf9190610dbe565b90815260200160405180910390206001015414159050919050565b604051806040016040528060008152602001600081525090565b600081519050919050565b600082825260208201905092915050565b6000819050602082019050919050565b6000819050919050565b61073381610720565b82525050565b60408201600082015161074f600085018261072a565b506020820151610762602085018261072a565b50505050565b60006107748383610739565b60408301905092915050565b6000602082019050919050565b6000610798826106f4565b6107a281856106ff565b93506107ad83610710565b8060005b838110156107de5781516107c58882610768565b97506107d083610780565b9250506001810190506107b1565b5085935050505092915050565b60006020820190508181036000830152610805818461078d565b905092915050565b600073ffffffffffffffffffffffffffffffffffffffff82169050919050565b60006108388261080d565b9050919050565b6108488161082d565b82525050565b6000602082019050610863600083018461083f565b92915050565b6000604051905090565b600080fd5b600080fd5b600080fd5b600080fd5b6000601f19601f8301169050919050565b7f4e487b7100000000000000000000000000000000000000000000000000000000600052604160045260246000fd5b6108d082610887565b810181811067ffffffffffffffff821117156108ef576108ee610898565b5b80604052505050565b6000610902610869565b905061090e82826108c7565b919050565b600067ffffffffffffffff82111561092e5761092d610898565b5b61093782610887565b9050602081019050919050565b82818337600083830152505050565b600061096661096184610913565b6108f8565b90508281526020810184848401111561098257610981610882565b5b61098d848285610944565b509392505050565b600082601f8301126109aa576109a961087d565b5b81356109ba848260208601610953565b91505092915050565b6109cc81610720565b81146109d757600080fd5b50565b6000813590506109e9816109c3565b92915050565b600080600060608486031215610a0857610a07610873565b5b600084013567ffffffffffffffff811115610a2657610a25610878565b5b610a3286828701610995565b9350506020610a43868287016109da565b9250506040610a54868287016109da565b9150509250925092565b600060208284031215610a7457610a73610873565b5b600082013567ffffffffffffffff811115610a9257610a91610878565b5b610a9e84828501610995565b91505092915050565b60008060408385031215610abe57610abd610873565b5b600083013567ffffffffffffffff811115610adc57610adb610878565b5b610ae885828601610995565b9250506020610af9858286016109da565b9150509250929050565b7f4e487b7100000000000000000000000000000000000000000000000000000000600052603260045260246000fd5b7f4e487b7100000000000000000000000000000000000000000000000000000000600052602260045260246000fd5b60006002820490506001821680610b7957607f821691505b602082108103610b8c57610b8b610b32565b5b50919050565b600081905092915050565b60008190508160005260206000209050919050565b60008154610bbf81610b61565b610bc98186610b92565b94506001821660008114610be45760018114610bf957610c2c565b60ff1983168652811515820286019350610c2c565b610c0285610b9d565b60005b83811015610c2457815481890152600182019150602081019050610c05565b838801955050505b50505092915050565b6000610c418284610bb2565b915081905092915050565b7f4e487b7100000000000000000000000000000000000000000000000000000000600052601160045260246000fd5b6000610c8682610720565b91507fffffffffffffffffffffffffffffffffffffffffffffffffffffffffffffffff8203610cb857610cb7610c4c565b5b600182019050919050565b6000604082019050610cd8600083018561083f565b610ce5602083018461083f565b9392505050565b600081519050919050565b600082825260208201905092915050565b60005b83811015610d26578082015181840152602081019050610d0b565b60008484015250505050565b6000610d3d82610cec565b610d478185610cf7565b9350610d57818560208601610d08565b610d6081610887565b840191505092915050565b60006020820190508181036000830152610d858184610d32565b905092915050565b6000610d9882610cec565b610da28185610b92565b9350610db2818560208601610d08565b80840191505092915050565b6000610dca8284610d8d565b915081905092915050565b60006020601f8301049050919050565b600082821b905092915050565b600060088302610e227fffffffffffffffffffffffffffffffffffffffffffffffffffffffffffffffff82610de5565b610e2c8683610de5565b95508019841693508086168417925050509392505050565b6000819050919050565b6000610e69610e64610e5f84610720565b610e44565b610720565b9050919050565b6000819050919050565b610e8383610e4e565b610e97610e8f82610e70565b848454610df2565b825550505050565b600090565b610eac610e9f565b610eb7818484610e7a565b505050565b5b81811015610edb57610ed0600082610ea4565b600181019050610ebd565b5050565b601f821115610f2057610ef181610b9d565b610efa84610dd5565b81016020851015610f09578190505b610f1d610f1585610dd5565b830182610ebc565b50505b505050565b600082821c905092915050565b6000610f4360001984600802610f25565b1980831691505092915050565b6000610f5c8383610f32565b9150826002028217905092915050565b610f7582610cec565b67ffffffffffffffff811115610f8e57610f8d610898565b5b610f988254610b61565b610fa3828285610edf565b600060209050601f831160018114610fd65760008415610fc4578287015190505b610fce8582610f50565b865550611036565b601f198416610fe486610b9d565b60005b8281101561100c57848901518255600182019150602085019450602081019050610fe7565b868310156110295784890151611025601f891682610f32565b8355505b6001600288020188555050505b505050505050565b61104781610720565b82525050565b6000604082019050611062600083018561103e565b61106f602083018461103e565b9392505050565b600061108182610720565b915061108c83610720565b92508282039050818111156110a4576110a3610c4c565b5b92915050565b60006110b582610720565b91506110c083610720565b92508282019050808211156110d8576110d7610c4c565b5b9291505056fea2646970667358221220093ff79819bce1fc2c08bc3f431067811c7c18660f4fd42eda2472d6acdc6f1d64736f6c63430008110033",
  "immutableReferences": {},
  "source": "// SPDX-License-Identifier: MIT\r\npragma solidity >=0.4.22 <0.9.0;\r\n\r\ninterface ISnaccMachine {\r\n    struct Snack {\r\n        uint amount;\r\n        uint price;\r\n    }\r\n\r\n    function getSnacks() external view returns (Snack[] memory);\r\n    function buySnack(string memory snackName) external payable;\r\n    function refillSnack(string memory snackName, uint amount) external;\r\n    function addSnack(string memory snackName, uint amount, uint price) external;\r\n\r\n    error CallerNotOwner(address caller, address owner);\r\n    error SnackDoesNotExist(string snackName);\r\n    error SnackSoldOut(string snackName);\r\n    error SnackAlreadyExists(string snackName);\r\n    error NotEnoughValueSent(uint sent, uint expected);\r\n}\r\n\r\ncontract NewSnaccMachine is ISnaccMachine {\r\n    address public owner;\r\n    mapping(string => Snack) snacks;\r\n    string[] snackNames;\r\n\r\n    constructor() {\r\n        owner = msg.sender;\r\n        addSnack(\"Snickers\",   5,  4 ether / 1000);\r\n        addSnack(\"Mars\",      10,  4 ether / 1000);\r\n        addSnack(\"Bounty\",    15,  4 ether / 1000);\r\n        addSnack(\"Twix\",      20,  4 ether / 1000);\r\n    }\r\n\r\n    function getSnacks() public view returns (Snack[] memory) {\r\n        Snack[] memory snacksView = new Snack[](snackNames.length);\r\n\r\n        for (uint index = 0; index < snackNames.length; index++) {\r\n            snacksView[index] = snacks[snackNames[index]];\r\n        }\r\n\r\n        return snacksView;\r\n    }\r\n\r\n    function buySnack(string memory snackName) public payable enforceSnackExists(snackName) {\r\n        if (snacks[snackName].amount == 0) revert SnackSoldOut(snackName);\r\n        if (msg.value < snacks[snackName].price) revert NotEnoughValueSent(msg.value, snacks[snackName].price);\r\n\r\n        snacks[snackName].amount -= 1;\r\n\r\n        uint change = msg.value - snacks[snackName].price;\r\n        msg.sender.call{ value: change };\r\n    }\r\n\r\n    function refillSnack(string memory snackName, uint amount) public enforceCallerIsOwner() enforceSnackExists(snackName) {\r\n        snacks[snackName].amount += amount;\r\n    }\r\n\r\n    function addSnack(string memory snackName, uint amount, uint price) public enforceCallerIsOwner() enforceSnackDoesNotExist(snackName) {\r\n        snacks[snackName] = Snack(amount, price);\r\n        snackNames.push(snackName);\r\n    }\r\n\r\n    modifier enforceCallerIsOwner() {\r\n        if (msg.sender != owner) revert CallerNotOwner(msg.sender, owner);\r\n        _;\r\n    }\r\n\r\n    modifier enforceSnackExists(string memory snackName) {\r\n        if (exists(snackName) == false) revert SnackDoesNotExist(snackName);\r\n        _;\r\n    }\r\n\r\n    modifier enforceSnackDoesNotExist(string memory snackName) {\r\n        if (exists(snackName)) revert SnackAlreadyExists(snackName);\r\n        _;\r\n    }\r\n\r\n    function exists(string memory snackName) internal view returns (bool) {\r\n        return snacks[snackName].price != 0;\r\n    }\r\n}\r\n",
  "sourcePath": "C:\\Users\\kamil\\Desktop\\SnaccMachine\\contracts\\NewSnaccMachine.sol",
  "compiler": {
    "name": "solc",
    "version": "0.8.17+commit.8df45f5f.Emscripten.clang"
  },
  "schemaVersion": "3.4.11",
  "updatedAt": "2022-12-13T23:22:23.700Z",
  "devdoc": {
    "kind": "dev",
    "methods": {},
    "version": 1
  },
  "userdoc": {
    "kind": "user",
    "methods": {},
    "version": 1
  }
}