{
  "contractName": "SnaccMachine",
  "abi": [
    {
      "inputs": [],
      "stateMutability": "nonpayable",
      "type": "constructor"
    },
    {
      "inputs": [],
      "name": "owner",
      "outputs": [
        {
          "internalType": "address",
          "name": "",
          "type": "address"
        }
      ],
      "stateMutability": "view",
      "type": "function",
      "constant": true
    },
    {
      "inputs": [],
      "name": "getSnacks",
      "outputs": [
        {
          "components": [
            {
              "internalType": "string",
              "name": "name",
              "type": "string"
            },
            {
              "internalType": "uint256",
              "name": "amount",
              "type": "uint256"
            },
            {
              "internalType": "uint256",
              "name": "price",
              "type": "uint256"
            }
          ],
          "internalType": "struct SnaccMachine.Snack[]",
          "name": "",
          "type": "tuple[]"
        }
      ],
      "stateMutability": "view",
      "type": "function",
      "constant": true
    },
    {
      "inputs": [
        {
          "internalType": "string",
          "name": "_snackName",
          "type": "string"
        }
      ],
      "name": "buySnack",
      "outputs": [],
      "stateMutability": "payable",
      "type": "function",
      "payable": true
    },
    {
      "inputs": [
        {
          "internalType": "string",
          "name": "_snackName",
          "type": "string"
        },
        {
          "internalType": "uint256",
          "name": "_amount",
          "type": "uint256"
        }
      ],
      "name": "refillSnack",
      "outputs": [],
      "stateMutability": "nonpayable",
      "type": "function"
    },
    {
      "inputs": [
        {
          "internalType": "string",
          "name": "_snackName",
          "type": "string"
        },
        {
          "internalType": "uint256",
          "name": "_amount",
          "type": "uint256"
        },
        {
          "internalType": "uint256",
          "name": "_price",
          "type": "uint256"
        }
      ],
      "name": "addSnack",
      "outputs": [],
      "stateMutability": "nonpayable",
      "type": "function"
    }
  ],
  "bytecode": "0x60806040523480156200001157600080fd5b50336000806101000a81548173ffffffffffffffffffffffffffffffffffffffff021916908373ffffffffffffffffffffffffffffffffffffffff160217905550600160405180606001604052806040518060400160405280600881526020017f536e69636b657273000000000000000000000000000000000000000000000000815250815260200160058152602001600181525090806001815401808255809150506001900390600052602060002090600302016000909190919091506000820151816000019081620000e691906200057e565b5060208201518160010155604082015181600201555050600160405180606001604052806040518060400160405280600481526020017f4d617273000000000000000000000000000000000000000000000000000000008152508152602001600a81526020016002815250908060018154018082558091505060019003906000526020600020906003020160009091909190915060008201518160000190816200019191906200057e565b5060208201518160010155604082015181600201555050600160405180606001604052806040518060400160405280600681526020017f426f756e747900000000000000000000000000000000000000000000000000008152508152602001600f81526020016003815250908060018154018082558091505060019003906000526020600020906003020160009091909190915060008201518160000190816200023c91906200057e565b5060208201518160010155604082015181600201555050600160405180606001604052806040518060400160405280600481526020017f5477697800000000000000000000000000000000000000000000000000000000815250815260200160148152602001600481525090806001815401808255809150506001900390600052602060002090600302016000909190919091506000820151816000019081620002e791906200057e565b506020820151816001015560408201518160020155505062000665565b600081519050919050565b7f4e487b7100000000000000000000000000000000000000000000000000000000600052604160045260246000fd5b7f4e487b7100000000000000000000000000000000000000000000000000000000600052602260045260246000fd5b600060028204905060018216806200038657607f821691505b6020821081036200039c576200039b6200033e565b5b50919050565b60008190508160005260206000209050919050565b60006020601f8301049050919050565b600082821b905092915050565b600060088302620004067fffffffffffffffffffffffffffffffffffffffffffffffffffffffffffffffff82620003c7565b620004128683620003c7565b95508019841693508086168417925050509392505050565b6000819050919050565b6000819050919050565b60006200045f6200045962000453846200042a565b62000434565b6200042a565b9050919050565b6000819050919050565b6200047b836200043e565b620004936200048a8262000466565b848454620003d4565b825550505050565b600090565b620004aa6200049b565b620004b781848462000470565b505050565b5b81811015620004df57620004d3600082620004a0565b600181019050620004bd565b5050565b601f8211156200052e57620004f881620003a2565b6200050384620003b7565b8101602085101562000513578190505b6200052b6200052285620003b7565b830182620004bc565b50505b505050565b600082821c905092915050565b6000620005536000198460080262000533565b1980831691505092915050565b60006200056e838362000540565b9150826002028217905092915050565b620005898262000304565b67ffffffffffffffff811115620005a557620005a46200030f565b5b620005b182546200036d565b620005be828285620004e3565b600060209050601f831160018114620005f65760008415620005e1578287015190505b620005ed858262000560565b8655506200065d565b601f1984166200060686620003a2565b60005b82811015620006305784890151825560018201915060208501945060208101905062000609565b868310156200065057848901516200064c601f89168262000540565b8355505b6001600288020188555050505b505050505050565b61161880620006756000396000f3fe60806040526004361061004a5760003560e01c806316a8a1441461004f5780638da5cb5b1461007a578063cd961f89146100a5578063e02402e1146100ce578063f7b20e56146100ea575b600080fd5b34801561005b57600080fd5b50610064610113565b6040516100719190610a19565b60405180910390f35b34801561008657600080fd5b5061008f610218565b60405161009c9190610a7c565b60405180910390f35b3480156100b157600080fd5b506100cc60048036038101906100c79190610c0c565b61023c565b005b6100e860048036038101906100e39190610c7b565b610390565b005b3480156100f657600080fd5b50610111600480360381019061010c9190610cc4565b6104f4565b005b60606001805480602002602001604051908101604052809291908181526020016000905b8282101561020f578382906000526020600020906003020160405180606001604052908160008201805461016a90610d4f565b80601f016020809104026020016040519081016040528092919081815260200182805461019690610d4f565b80156101e35780601f106101b8576101008083540402835291602001916101e3565b820191906000526020600020905b8154815290600101906020018083116101c657829003601f168201915b505050505081526020016001820154815260200160028201548152505081526020019060010190610137565b50505050905090565b60008054906101000a900473ffffffffffffffffffffffffffffffffffffffff1681565b60008054906101000a900473ffffffffffffffffffffffffffffffffffffffff1673ffffffffffffffffffffffffffffffffffffffff163373ffffffffffffffffffffffffffffffffffffffff16146102ca576040517f08c379a00000000000000000000000000000000000000000000000000000000081526004016102c190610ddd565b60405180910390fd5b600015156102d7846105f4565b151514610319576040517f08c379a000000000000000000000000000000000000000000000000000000000815260040161031090610e6f565b60405180910390fd5b600160405180606001604052808581526020018481526020018381525090806001815401808255809150506001900390600052602060002090600302016000909190919091506000820151816000019081610374919061103b565b5060208201518160010155604082015181600201555050505050565b610399816105f4565b6103d8576040517f08c379a00000000000000000000000000000000000000000000000000000000081526004016103cf9061117f565b60405180910390fd5b6103e1816106a8565b610420576040517f08c379a000000000000000000000000000000000000000000000000000000000815260040161041790611211565b60405180910390fd5b6104298161078b565b60020154341161046e576040517f08c379a0000000000000000000000000000000000000000000000000000000008152600401610465906112a3565b60405180910390fd5b60006104798261078b565b90506001816001015461048c91906112f2565b816001018190555060008160020154346104a691906112f2565b90503373ffffffffffffffffffffffffffffffffffffffff166108fc829081150290604051600060405180830381858888f193505050501580156104ee573d6000803e3d6000fd5b50505050565b60008054906101000a900473ffffffffffffffffffffffffffffffffffffffff1673ffffffffffffffffffffffffffffffffffffffff163373ffffffffffffffffffffffffffffffffffffffff1614610582576040517f08c379a000000000000000000000000000000000000000000000000000000000815260040161057990611398565b60405180910390fd5b61058b826105f4565b6105ca576040517f08c379a00000000000000000000000000000000000000000000000000000000081526004016105c19061142a565b60405180910390fd5b60006105d58361078b565b90508181600101546105e7919061144a565b8160010181905550505050565b600080600090505b60018054905081101561069d578260405160200161061a91906114ba565b6040516020818303038152906040528051906020012060018281548110610644576106436114d1565b5b90600052602060002090600302016000016040516020016106659190611583565b604051602081830303815290604052805190602001200361068a5760019150506106a3565b80806106959061159a565b9150506105fc565b50600090505b919050565b600080600090505b60018054905081101561078057826040516020016106ce91906114ba565b60405160208183030381529060405280519060200120600182815481106106f8576106f76114d1565b5b90600052602060002090600302016000016040516020016107199190611583565b604051602081830303815290604052805190602001200361076d5760006001828154811061074a576107496114d1565b5b906000526020600020906003020160010154111561076c576001915050610786565b5b80806107789061159a565b9150506106b0565b50600090505b919050565b600080600090505b60018054905081101561085457826040516020016107b191906114ba565b60405160208183030381529060405280519060200120600182815481106107db576107da6114d1565b5b90600052602060002090600302016000016040516020016107fc9190611583565b6040516020818303038152906040528051906020012003610841576001818154811061082b5761082a6114d1565b5b9060005260206000209060030201915050610859565b808061084c9061159a565b915050610793565b600080fd5b919050565b600081519050919050565b600082825260208201905092915050565b6000819050602082019050919050565b600081519050919050565b600082825260208201905092915050565b60005b838110156108c45780820151818401526020810190506108a9565b60008484015250505050565b6000601f19601f8301169050919050565b60006108ec8261088a565b6108f68185610895565b93506109068185602086016108a6565b61090f816108d0565b840191505092915050565b6000819050919050565b61092d8161091a565b82525050565b6000606083016000830151848203600086015261095082826108e1565b91505060208301516109656020860182610924565b5060408301516109786040860182610924565b508091505092915050565b600061098f8383610933565b905092915050565b6000602082019050919050565b60006109af8261085e565b6109b98185610869565b9350836020820285016109cb8561087a565b8060005b85811015610a0757848403895281516109e88582610983565b94506109f383610997565b925060208a019950506001810190506109cf565b50829750879550505050505092915050565b60006020820190508181036000830152610a3381846109a4565b905092915050565b600073ffffffffffffffffffffffffffffffffffffffff82169050919050565b6000610a6682610a3b565b9050919050565b610a7681610a5b565b82525050565b6000602082019050610a916000830184610a6d565b92915050565b6000604051905090565b600080fd5b600080fd5b600080fd5b600080fd5b7f4e487b7100000000000000000000000000000000000000000000000000000000600052604160045260246000fd5b610aed826108d0565b810181811067ffffffffffffffff82111715610b0c57610b0b610ab5565b5b80604052505050565b6000610b1f610a97565b9050610b2b8282610ae4565b919050565b600067ffffffffffffffff821115610b4b57610b4a610ab5565b5b610b54826108d0565b9050602081019050919050565b82818337600083830152505050565b6000610b83610b7e84610b30565b610b15565b905082815260208101848484011115610b9f57610b9e610ab0565b5b610baa848285610b61565b509392505050565b600082601f830112610bc757610bc6610aab565b5b8135610bd7848260208601610b70565b91505092915050565b610be98161091a565b8114610bf457600080fd5b50565b600081359050610c0681610be0565b92915050565b600080600060608486031215610c2557610c24610aa1565b5b600084013567ffffffffffffffff811115610c4357610c42610aa6565b5b610c4f86828701610bb2565b9350506020610c6086828701610bf7565b9250506040610c7186828701610bf7565b9150509250925092565b600060208284031215610c9157610c90610aa1565b5b600082013567ffffffffffffffff811115610caf57610cae610aa6565b5b610cbb84828501610bb2565b91505092915050565b60008060408385031215610cdb57610cda610aa1565b5b600083013567ffffffffffffffff811115610cf957610cf8610aa6565b5b610d0585828601610bb2565b9250506020610d1685828601610bf7565b9150509250929050565b7f4e487b7100000000000000000000000000000000000000000000000000000000600052602260045260246000fd5b60006002820490506001821680610d6757607f821691505b602082108103610d7a57610d79610d20565b5b50919050565b600082825260208201905092915050565b7f4f6e6c7920746865206f776e65722063616e2061646420736e61636b732e0000600082015250565b6000610dc7601e83610d80565b9150610dd282610d91565b602082019050919050565b60006020820190508181036000830152610df681610dba565b9050919050565b7f54686520736e61636b20616c7265616479206578697374732c20706c6561736560008201527f20726566696c6c20696e73746561642e00000000000000000000000000000000602082015250565b6000610e59603083610d80565b9150610e6482610dfd565b604082019050919050565b60006020820190508181036000830152610e8881610e4c565b9050919050565b60008190508160005260206000209050919050565b60006020601f8301049050919050565b600082821b905092915050565b600060088302610ef17fffffffffffffffffffffffffffffffffffffffffffffffffffffffffffffffff82610eb4565b610efb8683610eb4565b95508019841693508086168417925050509392505050565b6000819050919050565b6000610f38610f33610f2e8461091a565b610f13565b61091a565b9050919050565b6000819050919050565b610f5283610f1d565b610f66610f5e82610f3f565b848454610ec1565b825550505050565b600090565b610f7b610f6e565b610f86818484610f49565b505050565b5b81811015610faa57610f9f600082610f73565b600181019050610f8c565b5050565b601f821115610fef57610fc081610e8f565b610fc984610ea4565b81016020851015610fd8578190505b610fec610fe485610ea4565b830182610f8b565b50505b505050565b600082821c905092915050565b600061101260001984600802610ff4565b1980831691505092915050565b600061102b8383611001565b9150826002028217905092915050565b6110448261088a565b67ffffffffffffffff81111561105d5761105c610ab5565b5b6110678254610d4f565b611072828285610fae565b600060209050601f8311600181146110a55760008415611093578287015190505b61109d858261101f565b865550611105565b601f1984166110b386610e8f565b60005b828110156110db578489015182556001820191506020850194506020810190506110b6565b868310156110f857848901516110f4601f891682611001565b8355505b6001600288020188555050505b505050505050565b7f54686520736e61636b206d75737420657869737420696e206f7264657220746f60008201527f20626520626f756768742e000000000000000000000000000000000000000000602082015250565b6000611169602b83610d80565b91506111748261110d565b604082019050919050565b600060208201905081810360008301526111988161115c565b9050919050565b7f54686520736e61636b206d7573742062652073746f636b656420696e206f726460008201527f657220746f20626520626f756768742e00000000000000000000000000000000602082015250565b60006111fb603083610d80565b91506112068261119f565b604082019050919050565b6000602082019050818103600083015261122a816111ee565b9050919050565b7f596f75206d7573742073656e64206d6f7265206d6f6e657920696e206f72646560008201527f7220746f206275792074686520736e61636b2e00000000000000000000000000602082015250565b600061128d603383610d80565b915061129882611231565b604082019050919050565b600060208201905081810360008301526112bc81611280565b9050919050565b7f4e487b7100000000000000000000000000000000000000000000000000000000600052601160045260246000fd5b60006112fd8261091a565b91506113088361091a565b92508282039050818111156113205761131f6112c3565b5b92915050565b7f4f6e6c7920746865206f776e65722063616e20726566696c6c20736e61636b7360008201527f2e00000000000000000000000000000000000000000000000000000000000000602082015250565b6000611382602183610d80565b915061138d82611326565b604082019050919050565b600060208201905081810360008301526113b181611375565b9050919050565b7f54686520736e61636b206d75737420657869737420696e206f7264657220746f60008201527f20626520726566696c6c65642e00000000000000000000000000000000000000602082015250565b6000611414602d83610d80565b915061141f826113b8565b604082019050919050565b6000602082019050818103600083015261144381611407565b9050919050565b60006114558261091a565b91506114608361091a565b9250828201905080821115611478576114776112c3565b5b92915050565b600081905092915050565b60006114948261088a565b61149e818561147e565b93506114ae8185602086016108a6565b80840191505092915050565b60006114c68284611489565b915081905092915050565b7f4e487b7100000000000000000000000000000000000000000000000000000000600052603260045260246000fd5b6000815461150d81610d4f565b611517818661147e565b9450600182166000811461153257600181146115475761157a565b60ff198316865281151582028601935061157a565b61155085610e8f565b60005b8381101561157257815481890152600182019150602081019050611553565b838801955050505b50505092915050565b600061158f8284611500565b915081905092915050565b60006115a58261091a565b91507fffffffffffffffffffffffffffffffffffffffffffffffffffffffffffffffff82036115d7576115d66112c3565b5b60018201905091905056fea26469706673582212209882699ec3e7e45380e7fbeaf695776f46a168ee9216b4e35608c12cfe2bc01464736f6c63430008110033",
  "immutableReferences": {},
  "source": "// SPDX-License-Identifier: MIT\r\npragma solidity >=0.4.22 <0.9.0;\r\n\r\ncontract SnaccMachine {\r\n    struct Snack {\r\n        string name;\r\n        uint amount;\r\n        uint price;\r\n    }\r\n\r\n    address public owner;\r\n    Snack[] snacks;\r\n\r\n    constructor() {\r\n        owner = msg.sender;\r\n        snacks.push(Snack(\"Snickers\",  5, 1));\r\n        snacks.push(Snack(\"Mars\",     10, 2));\r\n        snacks.push(Snack(\"Bounty\",   15, 3));\r\n        snacks.push(Snack(\"Twix\",     20, 4));\r\n    }\r\n\r\n    function getSnacks() public view returns (Snack[] memory) {\r\n        return snacks;\r\n    }\r\n\r\n    function buySnack(string memory _snackName) public payable {\r\n        require(exists(_snackName), \"The snack must exist in order to be bought.\");\r\n        require(isStocked(_snackName), \"The snack must be stocked in order to be bought.\");\r\n        require(msg.value > getSnack(_snackName).price, \"You must send more money in order to buy the snack.\");\r\n\r\n        Snack storage snack = getSnack(_snackName);\r\n        snack.amount = snack.amount - 1;\r\n        \r\n        uint change = msg.value - snack.price;\r\n        payable(msg.sender).transfer(change);\r\n    }\r\n\r\n    function refillSnack(string memory _snackName, uint _amount) public {\r\n        require(msg.sender == owner, \"Only the owner can refill snacks.\");\r\n        require(exists(_snackName), \"The snack must exist in order to be refilled.\");\r\n\r\n        Snack storage snack = getSnack(_snackName);\r\n        snack.amount = snack.amount + _amount;\r\n    }\r\n\r\n    function addSnack(string memory _snackName, uint _amount, uint _price) public {\r\n        require(msg.sender == owner, \"Only the owner can add snacks.\");\r\n        require(exists(_snackName) == false, \"The snack already exists, please refill instead.\");\r\n\r\n        snacks.push(Snack(_snackName, _amount, _price));\r\n    }\r\n\r\n    // Helper functions\r\n    function exists(string memory _snackName) private view returns (bool) {\r\n        for (uint i = 0; i < snacks.length; i++) {\r\n            if (keccak256(abi.encodePacked(snacks[i].name)) == keccak256(abi.encodePacked(_snackName))) {\r\n                return true;\r\n            }\r\n        }\r\n        return false;\r\n    }\r\n\r\n    function isStocked(string memory _snackName) private view returns (bool) {\r\n        for (uint i = 0; i < snacks.length; i++) {\r\n            if (keccak256(abi.encodePacked(snacks[i].name)) == keccak256(abi.encodePacked(_snackName))) {\r\n                if (snacks[i].amount > 0) {\r\n                    return true;\r\n                }\r\n            }\r\n        }\r\n        return false;\r\n    }\r\n\r\n    // Make sure to call exists() or require(exists()) before calling getSnack()\r\n    function getSnack(string memory _snackName) private view returns (Snack storage) {\r\n        for (uint i = 0; i < snacks.length; i++) {\r\n            if (keccak256(abi.encodePacked(snacks[i].name)) == keccak256(abi.encodePacked(_snackName))) {\r\n                return snacks[i];\r\n            }\r\n        }\r\n        revert();\r\n    }\r\n}\r\n",
  "sourcePath": "C:\\Users\\kamil\\Desktop\\SnaccMachine\\contracts\\SnaccMachine.sol",
  "compiler": {
    "name": "solc",
    "version": "0.8.17+commit.8df45f5f.Emscripten.clang"
  },
  "schemaVersion": "3.4.11",
  "updatedAt": "2022-12-13T17:41:16.103Z",
  "networkType": "ethereum",
  "devdoc": {
    "kind": "dev",
    "methods": {},
    "version": 1
  },
  "userdoc": {
    "kind": "user",
    "methods": {},
    "version": 1
  }
}