{
  "contractName": "SnaccMachine",
  "abi": [
    {
      "inputs": [],
      "stateMutability": "nonpayable",
      "type": "constructor"
    },
    {
      "inputs": [
        {
          "internalType": "address",
          "name": "caller",
          "type": "address"
        },
        {
          "internalType": "address",
          "name": "owner",
          "type": "address"
        }
      ],
      "name": "CallerNotOwner",
      "type": "error"
    },
    {
      "inputs": [
        {
          "internalType": "uint256",
          "name": "sent",
          "type": "uint256"
        },
        {
          "internalType": "uint256",
          "name": "expected",
          "type": "uint256"
        }
      ],
      "name": "NotEnoughValueSent",
      "type": "error"
    },
    {
      "inputs": [
        {
          "internalType": "string",
          "name": "snaccName",
          "type": "string"
        }
      ],
      "name": "SnaccAlreadyAdded",
      "type": "error"
    },
    {
      "inputs": [
        {
          "internalType": "string",
          "name": "snaccName",
          "type": "string"
        }
      ],
      "name": "SnaccDoesNotExist",
      "type": "error"
    },
    {
      "inputs": [
        {
          "internalType": "string",
          "name": "snaccName",
          "type": "string"
        }
      ],
      "name": "SnaccSoldOut",
      "type": "error"
    },
    {
      "inputs": [],
      "name": "owner",
      "outputs": [
        {
          "internalType": "address",
          "name": "",
          "type": "address"
        }
      ],
      "stateMutability": "view",
      "type": "function",
      "constant": true
    },
    {
      "inputs": [],
      "name": "showSnaccs",
      "outputs": [
        {
          "components": [
            {
              "internalType": "string",
              "name": "name",
              "type": "string"
            },
            {
              "internalType": "uint256",
              "name": "amount",
              "type": "uint256"
            },
            {
              "internalType": "uint256",
              "name": "priceInWei",
              "type": "uint256"
            }
          ],
          "internalType": "struct ISnaccMachine.Snacc[]",
          "name": "",
          "type": "tuple[]"
        }
      ],
      "stateMutability": "view",
      "type": "function",
      "constant": true
    },
    {
      "inputs": [
        {
          "internalType": "string",
          "name": "snaccName",
          "type": "string"
        }
      ],
      "name": "buySnacc",
      "outputs": [],
      "stateMutability": "payable",
      "type": "function",
      "payable": true
    },
    {
      "inputs": [
        {
          "internalType": "string",
          "name": "snaccName",
          "type": "string"
        },
        {
          "internalType": "uint256",
          "name": "amount",
          "type": "uint256"
        }
      ],
      "name": "refillSnacc",
      "outputs": [],
      "stateMutability": "nonpayable",
      "type": "function"
    },
    {
      "inputs": [
        {
          "internalType": "string",
          "name": "snaccName",
          "type": "string"
        },
        {
          "internalType": "uint256",
          "name": "amount",
          "type": "uint256"
        },
        {
          "internalType": "uint256",
          "name": "priceInWei",
          "type": "uint256"
        }
      ],
      "name": "addSnacc",
      "outputs": [],
      "stateMutability": "nonpayable",
      "type": "function"
    },
    {
      "inputs": [],
      "name": "withdraw",
      "outputs": [],
      "stateMutability": "nonpayable",
      "type": "function"
    }
  ],
  "bytecode": "0x60806040523480156200001157600080fd5b50336000806101000a81548173ffffffffffffffffffffffffffffffffffffffff021916908373ffffffffffffffffffffffffffffffffffffffff160217905550620000a26040518060400160405280600481526020017f5477697800000000000000000000000000000000000000000000000000000000815250602866016bcc41e900006200019860201b60201c565b620000f26040518060400160405280600481526020017f4d61727300000000000000000000000000000000000000000000000000000000815250601e6601c6bf526340006200019860201b60201c565b620001426040518060400160405280600681526020017f426f756e7479000000000000000000000000000000000000000000000000000081525060146602aa1efb94e0006200019860201b60201c565b620001926040518060400160405280600881526020017f536e69636b657273000000000000000000000000000000000000000000000000815250600a660384665653e0006200019860201b60201c565b6200095c565b60008054906101000a900473ffffffffffffffffffffffffffffffffffffffff1673ffffffffffffffffffffffffffffffffffffffff163373ffffffffffffffffffffffffffffffffffffffff16146200024d573360008054906101000a900473ffffffffffffffffffffffffffffffffffffffff166040517f163678e90000000000000000000000000000000000000000000000000000000081526004016200024492919062000418565b60405180910390fd5b826200025f816200034b60201b60201c565b15620002a457806040517f296d45bc0000000000000000000000000000000000000000000000000000000081526004016200029b9190620004df565b60405180910390fd5b604051806060016040528085815260200184815260200183815250600285604051620002d1919062000545565b90815260200160405180910390206000820151816000019081620002f69190620007cd565b506020820151816001015560408201518160020155905050600184908060018154018082558091505060019003906000526020600020016000909190919091509081620003449190620007cd565b5050505050565b60008060028360405162000360919062000545565b908152602001604051809103902060000160405160200162000383919062000943565b6040516020818303038152906040528051906020012014158015620003cc57506000600283604051620003b7919062000545565b90815260200160405180910390206002015414155b9050919050565b600073ffffffffffffffffffffffffffffffffffffffff82169050919050565b60006200040082620003d3565b9050919050565b6200041281620003f3565b82525050565b60006040820190506200042f600083018562000407565b6200043e602083018462000407565b9392505050565b600081519050919050565b600082825260208201905092915050565b60005b838110156200048157808201518184015260208101905062000464565b60008484015250505050565b6000601f19601f8301169050919050565b6000620004ab8262000445565b620004b7818562000450565b9350620004c981856020860162000461565b620004d4816200048d565b840191505092915050565b60006020820190508181036000830152620004fb81846200049e565b905092915050565b600081905092915050565b60006200051b8262000445565b62000527818562000503565b93506200053981856020860162000461565b80840191505092915050565b60006200055382846200050e565b915081905092915050565b7f4e487b7100000000000000000000000000000000000000000000000000000000600052604160045260246000fd5b7f4e487b7100000000000000000000000000000000000000000000000000000000600052602260045260246000fd5b60006002820490506001821680620005d557607f821691505b602082108103620005eb57620005ea6200058d565b5b50919050565b60008190508160005260206000209050919050565b60006020601f8301049050919050565b600082821b905092915050565b600060088302620006557fffffffffffffffffffffffffffffffffffffffffffffffffffffffffffffffff8262000616565b62000661868362000616565b95508019841693508086168417925050509392505050565b6000819050919050565b6000819050919050565b6000620006ae620006a8620006a28462000679565b62000683565b62000679565b9050919050565b6000819050919050565b620006ca836200068d565b620006e2620006d982620006b5565b84845462000623565b825550505050565b600090565b620006f9620006ea565b62000706818484620006bf565b505050565b5b818110156200072e5762000722600082620006ef565b6001810190506200070c565b5050565b601f8211156200077d576200074781620005f1565b620007528462000606565b8101602085101562000762578190505b6200077a620007718562000606565b8301826200070b565b50505b505050565b600082821c905092915050565b6000620007a26000198460080262000782565b1980831691505092915050565b6000620007bd83836200078f565b9150826002028217905092915050565b620007d88262000445565b67ffffffffffffffff811115620007f457620007f36200055e565b5b620008008254620005bc565b6200080d82828562000732565b600060209050601f83116001811462000845576000841562000830578287015190505b6200083c8582620007af565b865550620008ac565b601f1984166200085586620005f1565b60005b828110156200087f5784890151825560018201915060208501945060208101905062000858565b868310156200089f57848901516200089b601f8916826200078f565b8355505b6001600288020188555050505b505050505050565b60008154620008c381620005bc565b620008cf818662000503565b94506001821660008114620008ed576001811462000903576200093a565b60ff19831686528115158202860193506200093a565b6200090e85620005f1565b60005b83811015620009325781548189015260018201915060208101905062000911565b838801955050505b50505092915050565b6000620009518284620008b4565b915081905092915050565b611403806200096c6000396000f3fe6080604052600436106100555760003560e01c80633ccfd60b1461005a578063696c06d9146100715780637ccb58a71461009a5780638da5cb5b146100b6578063b0ae647f146100e1578063b402c4011461010a575b600080fd5b34801561006657600080fd5b5061006f610135565b005b34801561007d57600080fd5b5061009860048036038101906100939190610af5565b610230565b005b6100b460048036038101906100af9190610b64565b6103cf565b005b3480156100c257600080fd5b506100cb6105ca565b6040516100d89190610bee565b60405180910390f35b3480156100ed57600080fd5b5061010860048036038101906101039190610c09565b6105ee565b005b34801561011657600080fd5b5061011f61072f565b60405161012c9190610e05565b60405180910390f35b60008054906101000a900473ffffffffffffffffffffffffffffffffffffffff1673ffffffffffffffffffffffffffffffffffffffff163373ffffffffffffffffffffffffffffffffffffffff16146101e7573360008054906101000a900473ffffffffffffffffffffffffffffffffffffffff166040517f163678e90000000000000000000000000000000000000000000000000000000081526004016101de929190610e27565b60405180910390fd5b3373ffffffffffffffffffffffffffffffffffffffff166108fc479081150290604051600060405180830381858888f1935050505015801561022d573d6000803e3d6000fd5b50565b60008054906101000a900473ffffffffffffffffffffffffffffffffffffffff1673ffffffffffffffffffffffffffffffffffffffff163373ffffffffffffffffffffffffffffffffffffffff16146102e2573360008054906101000a900473ffffffffffffffffffffffffffffffffffffffff166040517f163678e90000000000000000000000000000000000000000000000000000000081526004016102d9929190610e27565b60405180910390fd5b826102ec816108c3565b1561032e57806040517f296d45bc0000000000000000000000000000000000000000000000000000000081526004016103259190610e9a565b60405180910390fd5b6040518060600160405280858152602001848152602001838152506002856040516103599190610ef8565b9081526020016040518091039020600082015181600001908161037c919061111b565b5060208201518160010155604082015181600201559050506001849080600181540180825580915050600190039060005260206000200160009091909190915090816103c8919061111b565b5050505050565b80600015156103dd826108c3565b15150361042157806040517f6fcb0fa20000000000000000000000000000000000000000000000000000000081526004016104189190610e9a565b60405180910390fd5b8160006002826040516104349190610ef8565b9081526020016040518091039020600101540361048857806040517f2a92d50800000000000000000000000000000000000000000000000000000000815260040161047f9190610e9a565b60405180910390fd5b826002816040516104999190610ef8565b90815260200160405180910390206002015434101561051257346002826040516104c39190610ef8565b9081526020016040518091039020600201546040517ff4a75d130000000000000000000000000000000000000000000000000000000081526004016105099291906111fc565b60405180910390fd5b60016002856040516105249190610ef8565b908152602001604051809103902060010160008282546105449190611254565b92505081905550600060028560405161055d9190610ef8565b9081526020016040518091039020600201543461057a9190611254565b90503373ffffffffffffffffffffffffffffffffffffffff166108fc829081150290604051600060405180830381858888f193505050501580156105c2573d6000803e3d6000fd5b505050505050565b60008054906101000a900473ffffffffffffffffffffffffffffffffffffffff1681565b60008054906101000a900473ffffffffffffffffffffffffffffffffffffffff1673ffffffffffffffffffffffffffffffffffffffff163373ffffffffffffffffffffffffffffffffffffffff16146106a0573360008054906101000a900473ffffffffffffffffffffffffffffffffffffffff166040517f163678e9000000000000000000000000000000000000000000000000000000008152600401610697929190610e27565b60405180910390fd5b81600015156106ae826108c3565b1515036106f257806040517f6fcb0fa20000000000000000000000000000000000000000000000000000000081526004016106e99190610e9a565b60405180910390fd5b816002846040516107039190610ef8565b908152602001604051809103902060010160008282546107239190611288565b92505081905550505050565b6060600060018054905067ffffffffffffffff81111561075257610751610994565b5b60405190808252806020026020018201604052801561078b57816020015b610778610944565b8152602001906001900390816107705790505b50905060005b6001805490508110156108bb576002600182815481106107b4576107b36112bc565b5b906000526020600020016040516107cb919061136e565b90815260200160405180910390206040518060600160405290816000820180546107f490610f3e565b80601f016020809104026020016040519081016040528092919081815260200182805461082090610f3e565b801561086d5780601f106108425761010080835404028352916020019161086d565b820191906000526020600020905b81548152906001019060200180831161085057829003601f168201915b505050505081526020016001820154815260200160028201548152505082828151811061089d5761089c6112bc565b5b602002602001018190525080806108b390611385565b915050610791565b508091505090565b6000806002836040516108d69190610ef8565b90815260200160405180910390206000016040516020016108f7919061136e565b604051602081830303815290604052805190602001201415801561093d575060006002836040516109289190610ef8565b90815260200160405180910390206002015414155b9050919050565b60405180606001604052806060815260200160008152602001600081525090565b6000604051905090565b600080fd5b600080fd5b600080fd5b600080fd5b6000601f19601f8301169050919050565b7f4e487b7100000000000000000000000000000000000000000000000000000000600052604160045260246000fd5b6109cc82610983565b810181811067ffffffffffffffff821117156109eb576109ea610994565b5b80604052505050565b60006109fe610965565b9050610a0a82826109c3565b919050565b600067ffffffffffffffff821115610a2a57610a29610994565b5b610a3382610983565b9050602081019050919050565b82818337600083830152505050565b6000610a62610a5d84610a0f565b6109f4565b905082815260208101848484011115610a7e57610a7d61097e565b5b610a89848285610a40565b509392505050565b600082601f830112610aa657610aa5610979565b5b8135610ab6848260208601610a4f565b91505092915050565b6000819050919050565b610ad281610abf565b8114610add57600080fd5b50565b600081359050610aef81610ac9565b92915050565b600080600060608486031215610b0e57610b0d61096f565b5b600084013567ffffffffffffffff811115610b2c57610b2b610974565b5b610b3886828701610a91565b9350506020610b4986828701610ae0565b9250506040610b5a86828701610ae0565b9150509250925092565b600060208284031215610b7a57610b7961096f565b5b600082013567ffffffffffffffff811115610b9857610b97610974565b5b610ba484828501610a91565b91505092915050565b600073ffffffffffffffffffffffffffffffffffffffff82169050919050565b6000610bd882610bad565b9050919050565b610be881610bcd565b82525050565b6000602082019050610c036000830184610bdf565b92915050565b60008060408385031215610c2057610c1f61096f565b5b600083013567ffffffffffffffff811115610c3e57610c3d610974565b5b610c4a85828601610a91565b9250506020610c5b85828601610ae0565b9150509250929050565b600081519050919050565b600082825260208201905092915050565b6000819050602082019050919050565b600081519050919050565b600082825260208201905092915050565b60005b83811015610ccb578082015181840152602081019050610cb0565b60008484015250505050565b6000610ce282610c91565b610cec8185610c9c565b9350610cfc818560208601610cad565b610d0581610983565b840191505092915050565b610d1981610abf565b82525050565b60006060830160008301518482036000860152610d3c8282610cd7565b9150506020830151610d516020860182610d10565b506040830151610d646040860182610d10565b508091505092915050565b6000610d7b8383610d1f565b905092915050565b6000602082019050919050565b6000610d9b82610c65565b610da58185610c70565b935083602082028501610db785610c81565b8060005b85811015610df35784840389528151610dd48582610d6f565b9450610ddf83610d83565b925060208a01995050600181019050610dbb565b50829750879550505050505092915050565b60006020820190508181036000830152610e1f8184610d90565b905092915050565b6000604082019050610e3c6000830185610bdf565b610e496020830184610bdf565b9392505050565b600082825260208201905092915050565b6000610e6c82610c91565b610e768185610e50565b9350610e86818560208601610cad565b610e8f81610983565b840191505092915050565b60006020820190508181036000830152610eb48184610e61565b905092915050565b600081905092915050565b6000610ed282610c91565b610edc8185610ebc565b9350610eec818560208601610cad565b80840191505092915050565b6000610f048284610ec7565b915081905092915050565b7f4e487b7100000000000000000000000000000000000000000000000000000000600052602260045260246000fd5b60006002820490506001821680610f5657607f821691505b602082108103610f6957610f68610f0f565b5b50919050565b60008190508160005260206000209050919050565b60006020601f8301049050919050565b600082821b905092915050565b600060088302610fd17fffffffffffffffffffffffffffffffffffffffffffffffffffffffffffffffff82610f94565b610fdb8683610f94565b95508019841693508086168417925050509392505050565b6000819050919050565b600061101861101361100e84610abf565b610ff3565b610abf565b9050919050565b6000819050919050565b61103283610ffd565b61104661103e8261101f565b848454610fa1565b825550505050565b600090565b61105b61104e565b611066818484611029565b505050565b5b8181101561108a5761107f600082611053565b60018101905061106c565b5050565b601f8211156110cf576110a081610f6f565b6110a984610f84565b810160208510156110b8578190505b6110cc6110c485610f84565b83018261106b565b50505b505050565b600082821c905092915050565b60006110f2600019846008026110d4565b1980831691505092915050565b600061110b83836110e1565b9150826002028217905092915050565b61112482610c91565b67ffffffffffffffff81111561113d5761113c610994565b5b6111478254610f3e565b61115282828561108e565b600060209050601f8311600181146111855760008415611173578287015190505b61117d85826110ff565b8655506111e5565b601f19841661119386610f6f565b60005b828110156111bb57848901518255600182019150602085019450602081019050611196565b868310156111d857848901516111d4601f8916826110e1565b8355505b6001600288020188555050505b505050505050565b6111f681610abf565b82525050565b600060408201905061121160008301856111ed565b61121e60208301846111ed565b9392505050565b7f4e487b7100000000000000000000000000000000000000000000000000000000600052601160045260246000fd5b600061125f82610abf565b915061126a83610abf565b925082820390508181111561128257611281611225565b5b92915050565b600061129382610abf565b915061129e83610abf565b92508282019050808211156112b6576112b5611225565b5b92915050565b7f4e487b7100000000000000000000000000000000000000000000000000000000600052603260045260246000fd5b600081546112f881610f3e565b6113028186610ebc565b9450600182166000811461131d576001811461133257611365565b60ff1983168652811515820286019350611365565b61133b85610f6f565b60005b8381101561135d5781548189015260018201915060208101905061133e565b838801955050505b50505092915050565b600061137a82846112eb565b915081905092915050565b600061139082610abf565b91507fffffffffffffffffffffffffffffffffffffffffffffffffffffffffffffffff82036113c2576113c1611225565b5b60018201905091905056fea2646970667358221220bdb8040bc9251c4e6075b3aad87757f972d91e5e903fd05569c2d1035811406f64736f6c63430008110033",
  "immutableReferences": {},
  "source": "// SPDX-License-Identifier: MIT\r\npragma solidity 0.8.17;\r\n\r\ninterface ISnaccMachine {\r\n    struct Snacc {\r\n        string name;\r\n        uint amount;\r\n        uint priceInWei;\r\n    }\r\n\r\n    function showSnaccs() external view returns (Snacc[] memory);\r\n    function buySnacc(string memory snaccName) external payable;\r\n    function refillSnacc(string memory snaccName, uint amount) external;\r\n    function addSnacc(string memory snaccName, uint amount, uint priceInWei) external;\r\n    function withdraw() external;\r\n\r\n    error SnaccDoesNotExist(string snaccName);\r\n    error SnaccSoldOut(string snaccName);\r\n    error NotEnoughValueSent(uint sent, uint expected);\r\n    error CallerNotOwner(address caller, address owner);\r\n    error SnaccAlreadyAdded(string snaccName);\r\n}\r\n\r\ncontract SnaccMachine is ISnaccMachine {\r\n    address public owner;\r\n    string[] snaccNames;\r\n    mapping(string => Snacc) snaccs;\r\n\r\n    constructor() {\r\n        owner = msg.sender;\r\n        addSnacc(\"Twix\",     40, (4.0 ether / 10000));   // 0.00040 wai\r\n        addSnacc(\"Mars\",     30, (5.0 ether / 10000));   // 0.00050 wai\r\n        addSnacc(\"Bounty\",   20, (7.5 ether / 10000));   // 0.00075 wai\r\n        addSnacc(\"Snickers\", 10, (9.9 ether / 10000));   // 0.00099 wai\r\n    } \r\n\r\n    function showSnaccs() external view override returns (Snacc[] memory) {\r\n        Snacc[] memory snaccsView = new Snacc[](snaccNames.length);\r\n        for (uint index = 0; index < snaccNames.length; index++) {\r\n            snaccsView[index] = snaccs[snaccNames[index]];\r\n        }\r\n        return snaccsView;\r\n    }\r\n\r\n    function buySnacc(string memory snaccName) external payable override enforceSnaccExists(snaccName) enforceSnaccNotSoldOut(snaccName) enforceEnoughValueSentForSnacc(snaccName) {\r\n        snaccs[snaccName].amount -= 1;\r\n        uint changeInWei = msg.value - snaccs[snaccName].priceInWei;\r\n        payable(msg.sender).transfer(changeInWei);\r\n    }\r\n\r\n    function refillSnacc(string memory snaccName, uint amount) external override enforceCallerIsOwner() enforceSnaccExists(snaccName) {\r\n        snaccs[snaccName].amount += amount;\r\n    }\r\n\r\n    function addSnacc(string memory snaccName, uint amount, uint priceInWei) public override enforceCallerIsOwner() enforceSnaccNotAlreadyAdded(snaccName) {\r\n        snaccs[snaccName] = Snacc(snaccName, amount, priceInWei);\r\n        snaccNames.push(snaccName);\r\n    }\r\n\r\n    function withdraw() external override enforceCallerIsOwner() {\r\n        payable(msg.sender).transfer(address(this).balance);\r\n    }\r\n\r\n    function exists(string memory snaccName) internal view returns (bool) {\r\n        return keccak256(abi.encodePacked(snaccs[snaccName].name)) != \"\" && snaccs[snaccName].priceInWei != 0;\r\n    }\r\n\r\n    modifier enforceSnaccExists(string memory snaccName) {\r\n        if (exists(snaccName) == false) revert SnaccDoesNotExist(snaccName);\r\n        _;\r\n    }\r\n\r\n    modifier enforceSnaccNotSoldOut(string memory snaccName) {\r\n        if (snaccs[snaccName].amount == 0) revert SnaccSoldOut(snaccName);\r\n        _;\r\n    }\r\n\r\n    modifier enforceEnoughValueSentForSnacc(string memory snaccName) {\r\n        if (msg.value < snaccs[snaccName].priceInWei) revert NotEnoughValueSent(msg.value, snaccs[snaccName].priceInWei);\r\n        _;\r\n    }\r\n\r\n    modifier enforceCallerIsOwner() {\r\n        if (msg.sender != owner) revert CallerNotOwner(msg.sender, owner);\r\n        _;\r\n    }\r\n\r\n    modifier enforceSnaccNotAlreadyAdded(string memory snaccName) {\r\n        if (exists(snaccName)) revert SnaccAlreadyAdded(snaccName);\r\n        _;\r\n    }\r\n}\r\n",
  "sourcePath": "C:\\Users\\kamil\\Desktop\\SnaccMachine\\contracts\\SnaccMachine.sol",
  "compiler": {
    "name": "solc",
    "version": "0.8.17+commit.8df45f5f.Emscripten.clang"
  },
  "schemaVersion": "3.4.11",
  "updatedAt": "2022-12-14T14:22:50.680Z",
  "networkType": "ethereum",
  "devdoc": {
    "kind": "dev",
    "methods": {},
    "version": 1
  },
  "userdoc": {
    "kind": "user",
    "methods": {},
    "version": 1
  }
}